:1000000045C0000060C000005EC000005CC0000091
:100010005AC0000058C0000056C0000054C0000084
:1000200052C0000050C000004EC000004CC0000094
:100030004AC0000048C0000046C0000044C00000A4
:1000400042C0000040C000003EC000003CC00000B4
:100050003AC0000038C0000036C0000034C00000C4
:1000600032C0000030C000002EC000002CC00000D4
:100070002AC0000029C0000026C0000024C00000E3
:1000800022C0000020C000001EC0000011241FBEBE
:10009000CFEFD0E1DEBFCDBF11E0A0E0B1E0E0E600
:1000A000F3E000E00BBF02C007900D92A830B1074B
:1000B000D9F721E0A8E0B1E001C01D92A231B2075A
:1000C000E1F7DDD04BC19CCF1F920F920FB60F927C
:1000D00011240BB60F922F933F934F935F936F931F
:1000E0007F938F939F93AF93BF93CF93DF93EF93C0
:1000F000FF938FEF9FEF9093890080938800E091AA
:100100000801F09109013196F0930901E09308018B
:1001100080910B0190910C01019690930C018093BA
:100120000B01C0911001D091110147E1489F90014E
:10013000499F300D11248091040190E0BE01A9D0A7
:100140006217730720F510920C0110920B011C1618
:100150001D067CF480910D0190E0019683709078EB
:10016000992324F401978C6F9F6F019680930D0162
:100170000EC080910D0190E00396837090789923D2
:1001800024F401978C6F9F6F019680930D01E73DDA
:1001900029EAF20700F180910A0190E001966CE0F3
:1001A00070E077D080930A0181E090E0E63D29EA93
:1001B000F20710F480E090E046ED59EA849F900148
:1001C000859F300D949F300D1124E21BF30BF093AB
:1001D0000901E093080180910A0199EF980F93308B
:1001E00028F410920F0110920E0110C0835083303A
:1001F00038F48FEF9FEF90930F0180930E0106C0AC
:1002000081E090E090930F0180930E0140910E01E8
:1002100050910F012091050130910601429FC001CC
:10022000439F900D529F900D112427E1289FB0010C
:10023000299F700D1124072E000C880B990B20E8C4
:1002400034E84EE150E038D0C20FD31FD0931101F3
:10025000C0931001FF91EF91DF91CF91BF91AF91CA
:100260009F918F917F916F915F914F913F912F91CE
:100270000F900BBE0F900FBE0F901F9018958FE040
:1002800084BBE0910D01F0E0E050FF4F808185BB21
:10029000F8CF97FB072E16F4009406D077FD08D010
:1002A00027D007FC05D03EF4909581959F4F089587
:1002B000709561957F4F0895052E97FB16F4009475
:1002C0000FD057FD05D028D007FC02D046F408C057
:1002D00050954095309521953F4F4F4F5F4F089572
:1002E00090958095709561957F4F8F4F9F4F0895A2
:1002F000AA1BBB1B51E107C0AA1FBB1FA617B7074C
:1003000010F0A61BB70B881F991F5A95A9F7809567
:100310009095BC01CD010895A1E21A2EAA1BBB1B2A
:10032000FD010DC0AA1FBB1FEE1FFF1FA217B307C1
:10033000E407F50720F0A21BB30BE40BF50B661FD7
:10034000771F881F991F1A9469F76095709580959B
:1003500090959B01AC01BD01CF010895F894FFCFAA
:0803600003060C09011027003F
:00000001FF
